:100000000C9454000C9471000C9471000C947100C9
:100010000C9471000C94B0000C9471000C9471005D
:100020000C9471000C9471000C9471000C9471008C
:100030000C9471000C9471000C9471000C9471007C
:100040000C9471000C9471000C9471000C9471006C
:100050000C9471000C9471000C9471000C9471005C
:100060000C9471000C947100CD01B2024C01B202EB
:100070006B01B2028E01B202A301B202B401C1014E
:10008000B202CA019F02B202E101B2020002B20250
:100090002302B2023802B2024902B2026902B2027B
:1000A00082029302B2029C0211241FBECFEFD8E05D
:1000B000DEBFCDBF11E0A0E0B1E0E4EFFBE002C0A5
:1000C00005900D92AC32B107D9F711E0ACE2B1E086
:1000D00001C01D92A234B107E1F70E94BE020C9448
:1000E000F8050C9400009B012C593F4F293C310529
:1000F000D8F49B01220F331F220F331F620F731F8F
:1001000064527A4F8130910539F4660F771F7093EE
:100110008900609388000895009731F4660F771F77
:1001200070938B0060938A000895219A229A82EA44
:10013000809380008AE18093810080E49CE9909321
:1001400087008093860081E090E060E070E00E948C
:10015000730080E090E060E070E00E94730008951A
:100160001F920F920FB60F9211248F939F9386B513
:100170004A9B03C080932C0105C090912C01891BE0
:10018000809331019F918F910F900FBE0F901F9020
:10019000189552985698579884E08093680084EC9C
:1001A00080936D0083E085BD089510923A0180939D
:1001B00038011092390170933701609336014093F2
:1001C0003B012093350110922F0181E08093300193
:1001D000089510923A01809338011092390170937A
:1001E00037016093360140933B0110923501109224
:1001F0002F018FE0809330010895813049F08130E4
:1002000018F0823061F408C084EA8093BC0008953D
:1002100084E88093BC00089584E98093BC0008952D
:10022000809130018230D1F08430C1F08630B1F05D
:100230008830A1F08A3091F08D3081F0803171F0FA
:10024000823161F0843151F0863141F0883131F0F2
:100250008A3121F08C3111F08F3161F49091BC0022
:10026000992344F49091B900987F909334018F5F63
:100270008093300108958091300190E001978032A1
:10028000910508F06FC18C5C9F4FFC01EE0FFF1FC2
:100290000590F491E02D099480913401883321F484
:1002A00081E08093300117C0883031F0803121F037
:1002B0008CE0809330010FC0809138018E70880FE0
:1002C0008093BB0081E00E94FD00809130018F5F30
:1002D00080933001089580913401803211F0883389
:1002E00021F481E08093300119C0883121F08CE045
:1002F0008093300113C0809136018093BB0081E070
:100300000E94FD0080913B01813021F488E08093C0
:100310003001089586E08093300108958091340182
:10032000883221F08CE0809330010DC0809137013C
:100330008093BB0081E00E94FD00809130018F5FBF
:1003400080933001089580913401883269F480915E
:1003500035018093BB0081E00E94FD008091300157
:100360008F5F80933001089580913401883219F0B5
:1003700010922F0103C081E080932F018CE08093C5
:10038000300182E00E94FD00809130018F5F8093F8
:100390003001089510923001089580913A01982F0C
:1003A0009F5F90933A01853018F0109230010895C4
:1003B00080E00E94FD00809130018F5F80933001CA
:1003C000089580913401883321F48FE080933001C7
:1003D00017C0883031F0803121F08EE180933001F8
:1003E0000FC0809138018E70880F8093BB0081E030
:1003F0000E94FD00809130018F5F8093300108954D
:1004000080913401803211F0883321F48FE08093A1
:10041000300119C0883121F08EE18093300113C082
:10042000809136018093BB0081E00E94FD008091A5
:100430003B01813021F486E180933001089584E10D
:1004400080933001089580913401883221F08EE14B
:10045000809330010DC0809137018093BB0081E013
:100460000E94FD00809130018F5F809330010895DC
:1004700080913401883221F08EE18093300109C0EF
:1004800080E00E94FD00809130018F5F80933001F9
:10049000089580913401883321F48FE080933001F6
:1004A00018C0883031F0803121F08EE18093300126
:1004B00010C0809138018E70880F81608093BB00DE
:1004C00081E00E94FD00809130018F5F80933001B8
:1004D000089580913401803211F0883321F48FE047
:1004E000809330010FC0883121F08EE1809330017C
:1004F00009C081E00E94FD00809130018F5F8093F0
:100500003001089580913401883219F010922F0142
:1005100007C081E080932F018091BB00809335015B
:100520008EE18093300182E00E94FD0080913001D5
:100530008F5F80933001089510923001089580916B
:100540003A01982F9F5F90933A01853018F01092EE
:100550003001089580E00E94FD00809130018F5F9E
:1005600080933001089589E48093B8001092BA0016
:1005700085E08093BC001092B9000895F8940E9421
:1005800011030E9495000E94C900789400D080E079
:1005900091E0EDB7FEB7928381830E942E030F9006
:1005A0000F9001E311E00F2EFAE0EF2EF1E0FF2EA5
:1005B000F02DF894F801C081D0E0789400D000D0FC
:1005C000EDB7FEB7F282E182D483C3830E942E038B
:1005D000C555D0400F900F900F900F9081E090E0A4
:1005E000BE010E94730080E090E0BE010E94730093
:1005F000E0CFCF93C82F8A3019F48DE00E94F90222
:10060000E0ECF0E0808185FFFDCFC093C600CF9184
:100610000895E0ECF0E080818823ECF78091C6003B
:1006200008951092C50080E18093C400E0ECF0E0F2
:1006300080818260808386E08093C20088E180931D
:10064000C1008EE191E090933F0180933E0180E1F3
:1006500091E090933D0180933C010895A0E0B0E0CB
:10066000E4E3F3E00C94D105FE01359661917191BC
:1006700080913E0190913F01AF010E94430320967B
:10068000E2E00C94ED05ADE0B0E0E9E4F3E00C94B9
:10069000C1053C017D876C875A01FC0117821682D7
:1006A000838181FFC8C12E010894411C511CF301B4
:1006B0009381EC85FD8593FD859193FF8191FD8765
:1006C000EC87882309F4B3C1853241F493FD859109
:1006D00093FF8191FD87EC87853229F490E0B30187
:1006E0000E943705E4CFFF24EE2410E01032B0F46E
:1006F0008B3269F08C3228F4803251F0833271F4FD
:100700000BC08D3239F0803349F411602CC0126077
:10071000146029C0186027C0106125C017FD2EC0C5
:10072000282F20532A3098F416FF08C08F2D880FE9
:10073000F82EFF0CFF0CF80EF20E15C08E2D880F50
:10074000E82EEE0CEE0CE80EE20E10620CC08E32BB
:1007500021F416FD6CC1106406C08C3611F41068CB
:1007600002C0883659F4EC85FD8593FD859193FF91
:100770008191FD87EC87882309F0B8CF982F955495
:10078000933018F09052933038F424E030E0A20E09
:10079000B31E3FE339830FC0833631F0833781F0D6
:1007A000833509F05AC022C0F5018081898322E097
:1007B00030E0A20EB31E21E0C22ED12C420114C0A3
:1007C00092E0292E312C2A0C3B1CF501808091806F
:1007D00016FF03C06F2D70E002C06FEF7FEFC40102
:1007E0000E942C056C0151011F7715C082E0282E54
:1007F000312C2A0C3B1CF5018080918016FF03C030
:100800006F2D70E002C06FEF7FEFC4010E942105E1
:100810006C011068510113FD1CC006C080E290E01D
:10082000B3010E943705EA948E2D90E0C816D906D0
:10083000A8F30FC0F40117FD859117FF81914F01B7
:1008400090E0B3010E943705E110EA940894C108D2
:10085000D108C114D10471F7E7C0843611F089368C
:1008600051F5F50117FF07C080819181A281B38105
:1008700024E030E008C080819181AA2797FDA095EF
:10088000BA2F22E030E0A20EB31E012F0F76B7FF81
:1008900008C0B095A095909581959F4FAF4FBF4FE1
:1008A0000068BC01CD01A2012AE030E00E9463058E
:1008B000D82ED4183FC0853721F41F7E2AE030E0BF
:1008C00020C0197F8F36A9F0803720F4883509F0D1
:1008D000AEC00BC0803721F0883709F0A8C001C036
:1008E000106114FF09C0146007C014FF08C016602F
:1008F00006C028E030E005C020E130E002C020E181
:1009000032E0F50117FF07C0608171818281938118
:1009100044E050E006C06081718180E090E042E0F8
:1009200050E0A40EB51EA2010E946305D82ED41873
:10093000012F0F7706FF09C00E7FDF1430F404FF8C
:1009400006C002FD04C00F7E02C01D2D01C01F2D78
:10095000802F90E004FF0CC0FE01ED0DF11D208101
:10096000203311F4097E09C002FF06C01E5F05C0D6
:1009700086789070009709F01F5F802E992403FD00
:1009800012C000FF0DC0FD2C1E1550F4FE0CF11A14
:100990001E2D06C080E290E0B3010E9437051F5F64
:1009A0001E15C0F304C01E1510F4E11A01C0EE2498
:1009B00084FE0FC080E390E0B3010E94370582FE01
:1009C0001FC081FE03C088E590E010C088E790E07A
:1009D0000DC0C40186789070009791F081FC02C030
:1009E00080E201C08BE207FD8DE290E0B3010E943E
:1009F000370506C080E390E0B3010E943705FA9402
:100A0000DF14C0F3DA94F201ED0DF11D808190E066
:100A1000B3010E943705DD20A9F706C080E290E00F
:100A2000B3010E943705EA94EE20C1F740CEF301EE
:100A30008681978102C08FEF9FEF2D96E2E10C94A3
:100A4000DD05FC010590615070400110D8F78095DC
:100A500090958E0F9F1F0895FC016150704001908A
:100A60000110D8F7809590958E0F9F1F08950F93D2
:100A70001F93CF93DF938C01EB018B8181FF1BC010
:100A800082FF0DC02E813F818C819D8128173907FF
:100A900064F4E881F9810193F983E88306C0E8856D
:100AA000F985802F0995009731F48E819F810196F9
:100AB0009F838E8302C00FEF1FEFC801DF91CF919C
:100AC0001F910F910895FA01AA27283051F1203182
:100AD00081F1E8946F936E7F6E5F7F4F8F4F9F4FD2
:100AE000AF4FB1E03ED0B4E03CD0670F781F891F14
:100AF0009A1FA11D680F791F8A1F911DA11D6A0FE2
:100B0000711D811D911DA11D20D009F468943F9194
:100B10002AE0269F11243019305D3193DEF6CF0193
:100B20000895462F4770405D4193B3E00FD0C9F759
:100B3000F6CF462F4F70405D4A3318F0495D31FDC6
:100B40004052419302D0A9F7EACFB4E0A695979519
:100B5000879577956795BA95C9F7009761057105EF
:100B600008959B01AC010A2E069457954795379539
:100B70002795BA95C9F7620F731F841F951FA01D93
:100B800008952F923F924F925F926F927F928F9231
:100B90009F92AF92BF92CF92DF92EF92FF920F930C
:100BA0001F93CF93DF93CDB7DEB7CA1BDB0B0FB616
:100BB000F894DEBF0FBECDBF09942A8839884888D3
:100BC0005F846E847D848C849B84AA84B984C88469
:100BD000DF80EE80FD800C811B81AA81B981CE0F60
:100BE000D11D0FB6F894DEBF0FBECDBFED01089545
:040BF000F894FFCFA7
:100BF4005F5F53544152545F5F00202025640A0014
:100C040000000001000000000000090300000000D3
:0C0C1400000200000000F90200000000D7
:00000001FF
